:020000040800F2
:100000000000022091480008ED060008EF060008F5
:10001000F1060008F3060008F506000800000000DD
:100020000000000000000000000000002146000861
:10003000F706000800000000C14600082547000838
:10004000E5480008E5480008E5480008E5480008DC
:10005000E5480008E5480008E5480008E5480008CC
:10006000E5480008E5480008E5480008E5480008BC
:10007000E5480008E5480008E5480008E5480008AC
:10008000E5480008E5480008E5480008E54800089C
:10009000E5480008E5480008E5480008E54800088C
:1000A000E5480008F9060008E5480008E5480008AA
:1000B000E5480008E5480008E5480008E54800086C
:1000C000E5480008E5480008E5480008E54800085C
:1000D000E5480008E5480008E5480008E54800084C
:1000E00009070008E5480008E5480008E548000859
:1000F000E5480008E5480008E5480008E54800082C
:10010000E5480008E5480008E5480008E54800081B
:10011000E5480008E5480008E5480008E54800080B
:10012000E5480008E5480008E5480008E5480008FB
:10013000E54800080000000000000000E548000855
:10014000E5480008E5480008E5480008E5480008DB
:10015000E5480008E5480008E5480008E5480008CB
:10016000E5480008E5480008E5480008E5480008BB
:10017000E5480008E5480008E548000800000000E0
:10018000E5480008E5480008E5480008E54800089B
:10019000E5480008E5480008E5480008E54800088B
:1001A000E5480008E5480008E5480008E54800087B
:1001B000E5480008E5480008E5480008E54800086B
:1001C000E5480008E54800080000000000000000C5
:1001D0000000000000000000E548000800000000EA
:1001E000000000000000000000000000000000000F
:1001F0000000000000000000E5480008E548000895
:10020000E5480008E548000800000000E54800084F
:10021000E5480008E5480008E5480008E54800080A
:10022000E5480008E5480008E5480008000000002F
:10023000E5480008E548000800000000E54800081F
:10024000E5480008E5480008E5480008E5480008DA
:10025000E5480008E5480008E5480008E5480008CA
:10026000E5480008E5480008E5480008E5480008BA
:10027000E5480008E5480008E548000800000000DF
:10028000E5480008E548000800000000E5480008CF
:1002900000000000E5480008E548000800000000F4
:0C02A00000000000E5480008E5480008E8
:1002B00053B94AB9002908BF00281CBF4FF0FF31CD
:1002C0004FF0FF3000F00CB8ADF1080C6DE904CE32
:1002D00004F036FBDDF804E0DDE9022304B07047EA
:1002E000704700BF0348044B834202D0034B03B165
:1002F0001847704718000020180000200000000078
:100300000548064B1B1AD90F01EBA301491002D077
:10031000034B03B118477047180000201800002055
:100320000000000010B5064C237843B9FFF7DAFF50
:10033000044B13B10448AFF300800123237010BDB8
:100340001800002000000000384C000808B5054BDC
:100350001BB105490548AFF30080BDE80840FFF731
:10036000CFBF00BF000000001C000020384C000878
:1003700030B585B00024009401940294039400F0F9
:1003800071FD01238DF800308DF8014001941F228A
:100390008DF8082087228DF809208DF80A408DF805
:1003A0000B408DF80C308DF80D308DF80E408DF827
:1003B0000F40684600F074FD042000F061FD05B0B8
:1003C00030BD000008B50268034B9A4200D008BD5A
:1003D00002F04AFDFBE700BF0000014072B6FEE7F5
:1003E00000B59DB04C22002109A804F07CFA20221F
:1003F000002101A804F077FA244B254AC3F8B02065
:10040000042002F0B9FC00230093224B9A6942F4C5
:1004100040429A619B6903F440430093009B1D4B4B
:100420009B6913F4005FFAD00223099301220C9216
:1004300040220D9212930022139204211491232042
:1004400015901693179118930C2319931A921B92D7
:1004500009A800F051FDA8B93F230193032302939B
:100460000023039304934023059306934FF4806283
:1004700007920893062101A801F06AF920B91DB07E
:100480005DF804FBFFF7AAFFFFF7A8FF004402583E
:10049000FFFF03E00048025808B5FFF769FF02F0CC
:1004A000B5FCFFF79DFF00F025F800F083F800F0A1
:1004B00069F8002000F0D6F9012000F0D3F90220FD
:1004C00000F0D0F90121002000F01EFA08494FF495
:1004D000E1330B600020486008814881888100F08A
:1004E00081FA08B1FFF77AFF03F0DCFEFEE700BFF8
:1004F0003400002084B0194BD3F8402142F00402AC
:10050000C3F84021D3F8402102F004020092009A7F
:10051000D3F8402142F08002C3F84021D3F84021B3
:1005200002F080020192019AD3F8402142F00202C7
:10053000C3F84021D3F8402102F002020292029A4D
:10054000D3F8402142F00102C3F84021D3F84031F2
:1005500003F001030393039B04B070470044025867
:1005600008B5012003F0D6FEFBE70000034B036053
:10057000034B0B6080231360704700BF44020020D0
:100580004400002010B588B00DF1040C074C0FCCCE
:10059000ACE80F0094E807008CE80700002101A8F0
:1005A00003F085FE024B186008B010BD504C0008E7
:1005B0009802002008B51748174B03604FF4E13349
:1005C000436000238360C36003610C224261836146
:1005D000C36103624362836203F023F970B90021AF
:1005E0000C4803F096F960B900210A4803F0B6F907
:1005F00050B9084803F06EF948B908BDFFF7EEFEA0
:10060000EDE7FFF7EBFEEFE7FFF7E8FEF1E7FFF7B7
:10061000E5FEF2E79C0200200010014070B5BAB080
:100620000446002135913691379138913991C02295
:1006300004A804F058F92268284B9A4201D03AB035
:1006400070BD01220023CDE9042304A801F042FB80
:10065000002840D1224BD3F8502142F01002C3F8B9
:100660005021D3F8502102F010020192019AD3F8E0
:10067000402142F00202C3F84021D3F8402102F0A9
:1006800002020292029AD3F8402142F00102C3F81A
:100690004021D3F8403103F001030393039B4FF44F
:1006A0000043359302263696002437943894042369
:1006B000399335AD29460B4802F048FA4FF40073E0
:1006C000359336963794389407233993294606484C
:1006D00002F03CFAB3E7FFF781FEBBE700100140F0
:1006E000004402580004025800000258FEE7FEE7EA
:1006F000FEE7FEE7FEE7704708B5024800F0D8F9CC
:1007000008BD00BF3003002008B5002000F042F90A
:1007100008BD000000B583B00A4BD3F8542142F065
:100720000202C3F85421D3F8543103F002030193B9
:10073000019B00220F216FF0010000F07FFB03B04E
:100740005DF804FB004402580F2801D901207047CE
:1007500010B58AB0044600220146192000F06EFB55
:10076000192000F07BFB174B1C60174BD3F850216E
:1007700042F00102C3F85021D3F8503103F00103D5
:100780000093009B01A902A801F072F901F05EF943
:1007900043000E4AA2FB03239B0C013B0C480D4A6D
:1007A000026040F2E732C26043600023036183606D
:1007B00000F0BEFA10B101200AB010BD044800F0EC
:1007C0002BF9F9E7080000200044025883DE1B43A0
:1007D0003003002000000140F0B589B01F4BD3F872
:1007E000402142F00802C3F84021D3F8402102F032
:1007F00008020092009AD3F8402142F00802C3F8A0
:100800004021D3F8402102F008020192019AD3F866
:10081000482142F48022C3F84821D3F8483103F438
:1008200080230293029B4FF4807303930224049469
:100830000694012305930727079703AE084D314619
:10084000284602F083F94FF400730393049407974A
:100850003146284602F07AF909B0F0BD004402584A
:10086000000C0258022846D870B588B028BB234B2C
:10087000D3F8402142F00202C3F84021D3F84031BE
:1008800003F002030093009B1D4B33F810600396A6
:10089000012304930024059403230693194B53F872
:1008A000205003A9284602F051F922463146284635
:1008B00002F05CFA204608B070BD01280DD00F4B45
:1008C000D3F8402142F00202C3F84021D3F840316E
:1008D00003F002030293029BD6E7084BD3F84021B2
:1008E00042F01002C3F84021D3F8403103F0100366
:1008F0000193019BC8E76FF0010070470044025864
:10090000804C0008884C000810B586B01C4BD3F80A
:10091000402142F00402C3F84021D3F8403103F0F3
:1009200004030093009B4FF40053019302230393AD
:10093000049341B90023029301A9124802F006F979
:10094000002006B010BD04464FF48813029301A99D
:100950000C4802F0FBF80C4B03EBC4040B49204697
:1009600002F09DFA0A4A0021204602F08FFA002286
:100970000F21282000F062FA282000F06FFADFE74C
:100980000044025800080258100400200D003016E0
:10099000AB09000808B5034B03EBC00002F086FA70
:1009A00008BD00BF10040020704708B50020FFF705
:1009B000FBFF08BD08B50A4A126802600A68426077
:1009C0000C2242614A8902614A6882600A89C260D7
:1009D0008A8982614FF40042C26102F022FF08BDA1
:1009E0000000002070B938B50D469422084C02FB77
:1009F00000442046FFF7F0FE29462046FFF7DAFFC5
:100A000018B938BD6FF0010070476FF00300F8E7C8
:100A10007C0300207047000090F83D30012B3AD154
:100A2000022380F83D300268D36843F00103D360AD
:100A300003681B4AB3F1804F18BF93421DD0A2F543
:100A40007C42934219D002F58062934215D002F5A0
:100A50008062934211D002F5784293420DD0A2F504
:100A60006C42934209D002F59432934205D01A6841
:100A700042F001021A60002070479968094A0A4052
:100A8000062A18BFB2F5803F07D01A6842F001026B
:100A90001A6000207047012070470020704700BF97
:100AA0000000014007000100704770477047704721
:100AB00070B504460368DE681D6915F0020F10D09A
:100AC00016F0020F0DD06FF002021A6101230377B6
:100AD00003689B6913F0030F64D0FFF7E6FF002360
:100AE000237715F0040F12D016F0040F0FD02368EF
:100AF0006FF004021A610223237723689B6913F4C1
:100B0000407F55D02046FFF7D0FF0023237715F014
:100B1000080F12D016F0080F0FD023686FF00802EC
:100B20001A61042323772368DB6913F0030F46D08F
:100B30002046FFF7BAFF0023237715F0100F12D0DD
:100B400016F0100F0FD023686FF010021A610823FF
:100B500023772368DB6913F4407F37D02046FFF703
:100B6000A4FF0023237715F0010F02D016F0010F28
:100B700033D115F4025F02D016F0800F35D115F491
:100B8000807F02D016F0800F37D115F0400F02D0D1
:100B900016F0400F39D115F0200F02D016F0200FBB
:100BA0003BD170BDFFF780FF2046FFF77FFF96E740
:100BB0002046FFF779FF2046FFF778FFA5E720469C
:100BC000FFF772FF2046FFF771FFB4E72046FFF7FB
:100BD0006BFF2046FFF76AFFC3E723686FF001024F
:100BE0001A612046FFF7EEFBC3E723686FF4025259
:100BF0001A61204600F0CDF8C1E723686FF48072D7
:100C00001A61204600F0C6F8BFE723686FF0400283
:100C10001A612046FFF74BFFBDE723686FF0200203
:100C20001A61204600F0B4F8BBE7000070B4036816
:100C3000394A904214BF00220122B0F1804F14BF04
:100C4000144642F00104ACB9344DA84214BF00254B
:100C50000125334EB0420DD065B905F1804505F54B
:100C60008235A84214BF0025012506F50066B04272
:100C700000D01DB123F070034D682B4314BB274CEB
:100C8000A04214BF00240124254DA8421AD0CCB99B
:100C900004F1804404F58234A04214BF00240124EE
:100CA00005F50065A8420DD064B91E4CA04214BFE2
:100CB0000024012405F59A35A84203D014B91A4C32
:100CC000A04203D123F44073CC68234323F0800374
:100CD0004C6923438C68C4620C688462134CA04244
:100CE00008BF42F0010262B90E4A904214BF0022CE
:100CF000012204F57054A04203D012B90A4A90426E
:100D000001D10A690263026842F004020260012212
:100D10004261036070BC7047000001400008004061
:100D2000000400400044014000480140000401402C
:100D300060B310B5044690F83D3013B3022384F835
:100D40003D30214651F8040BFFF770FF012384F872
:100D5000483084F83E3084F83F3084F8403084F8DE
:100D6000413084F8423084F8433084F8443084F8C9
:100D7000453084F8463084F8473084F83D30002010
:100D800010BD80F83C30FFF745FED7E701207047E3
:100D90007047704770470000002807DB00F01F0213
:100DA000400901239340024A42F82030704700BFB7
:100DB00000E100E0002804DB0901C9B2044B19542A
:100DC000704700F00F000901C9B2024B1954704777
:100DD00000E400E014ED00E000B500F00700C0F111
:100DE000070CBCF1040F28BF4FF0040C031D062BA9
:100DF0000FD9C31E4FF0FF3E0EFA0CF021EA00019E
:100E000099400EFA03FE22EA0E0241EA02005DF862
:100E100004FB0023EEE700000649CB6823F4E063FF
:100E20001B041B0C000200F4E0600343024A1A4357
:100E3000CA60704700ED00E00000FA0510B50446F6
:100E4000054BD868C0F30220FFF7C6FF01462046D5
:100E5000FFF7B0FF10BD00BF00ED00E008B5FFF7E1
:100E60009BFF08BDBFF35F8F044B5A6A22F48032A8
:100E70005A620022C3F89420704700BF00ED00E0E2
:100E800040F00100054BC3F894005A6A42F48032E6
:100E90005A62BFF34F8FBFF36F8F704700ED00E0D2
:100EA0004378144AC2F89830D2F8A03023F00103F6
:100EB000C2F8A0304368C2F89C30017BC37A1B069D
:100EC00043EA0173817A43EAC143417B43EA8143A8
:100ED000817B43EA4143C17B43EA0143417A43EAD0
:100EE0000123017A43EA410301780B43C2F8A030A1
:100EF000704700BF00ED00E0002800F0118338B516
:100F00000446036813F0010F29D0A14A136903F0C6
:100F10003803926A102B19D0182B13D06368B3F5DD
:100F2000803F43D0002B58D1994B1A6822F480326D
:100F30001A601A6822F480121A601A6822F4802259
:100F40001A6038E002F00302022AE7D1904B1B68D6
:100F500013F4003F03D06368002B00F0E3822368A2
:100F600013F0020F00F0A280894A1369926A13F00D
:100F7000380374D0182B6FD0E368002B00F0C380C7
:100F800083490A6822F0190213430B6001F078FFCD
:100F900005467F4B1B6813F0040F40F0AB8001F057
:100FA0006FFF401B0228F4D90320C2E2784A13687D
:100FB00043F4803313606368002B3ED001F060FF80
:100FC0000546734B1B6813F4003FC8D101F058FF6E
:100FD000401B6428F5D90320ABE2B3F5A02F10D055
:100FE000B3F5A81F1BD06A4B1A6822F480321A602E
:100FF0001A6822F480221A601A6822F480121A6099
:10100000D9E7634B1A6842F480221A601A6822F406
:1010100080121A601A6842F480321A60CBE75C4B87
:101020001A6842F480221A601A6842F480121A6028
:101030001A6842F480321A60BDE701F021FF0546CC
:10104000534B1B6813F4003F89D001F019FF401B7C
:101050006428F5D903206CE212F0030F8CD14C4BBD
:101060001B6813F0040F03D0E368002B00F05C82D0
:10107000474A136823F01903E1680B43136001F03A
:10108000FFFE0546424B1B6813F0040F06D101F02A
:10109000F7FE401B0228F5D903204AE23C4A536878
:1010A00023F0FE43216943EA01635360236813F090
:1010B000100F51D0364A136903F03803926A082B97
:1010C00039D0182B33D0E369002B6CD0304A136829
:1010D00043F08003136001F0D3FE05462C4B1B68E0
:1010E00013F4807F56D101F0CBFE401B0228F5D9C6
:1010F00003201EE2264A536823F0FE43216943EA97
:1011000001635360D2E7224A136823F0010313609E
:1011100001F0B6FE05461E4B1B6813F0040FC5D048
:1011200001F0AEFE401B0228F5D9032001E202F0D7
:101130000302012AC7D1164B1B6813F4807F03D02A
:10114000E369802B40F0F281114AD36823F07C538D
:10115000216A43EA0163D360236813F0080F4AD081
:101160006369002B33D00A4A536F43F0010353677E
:1011700001F086FE0546064B5B6F13F0020F3AD175
:1011800001F07EFE401B0228F5D90320D1E100BF0B
:10119000004402588C4AD36823F07C53216A43EA06
:1011A0000163D360D8E7884A136823F08003136093
:1011B00001F066FE0546844B1B6813F4807FCBD09C
:1011C00001F05EFE401B0228F5D90320B1E17E4A02
:1011D000536F23F00103536701F052FE05467A4B2B
:1011E0005B6F13F0020F06D001F04AFE401B02288D
:1011F000F5D903209DE1236813F0200F29D0A369BE
:101200009BB1714A136843F48053136001F038FEB8
:1012100005466D4B1B6813F4005F1AD101F030FED8
:10122000401B0228F5D9032083E1674A136823F4A1
:101230008053136001F024FE0546634B1B6813F4D2
:10124000005F06D001F01CFE401B0228F5D90320E8
:101250006FE1236813F0040F22D1636A002B00F0C2
:101260006781594A126902F03802182A00F00E818B
:10127000022B00F09480544A136823F080731360AB
:1012800001F0FEFD0446504B1B6813F0007F00F098
:10129000FB8001F0F5FD001B0228F4D9032048E192
:1012A0004A4A136843F48073136001F0E9FD054670
:1012B000464B1B6813F4807F06D101F0E1FD401B13
:1012C0006428F5D9032034E1A368012B0ED033BB89
:1012D0003D4B1A6F22F001021A671A6F22F080024A
:1012E0001A671A6F22F004021A6704E0364A136F75
:1012F00043F001031367A368002B3ED001F0C0FD4B
:101300000546314B1B6F13F0020FA6D101F0B8FD5B
:10131000401B41F288339842F3D9032009E1052BA1
:101320000FD0852B1BD0284B1A6F22F001021A67B1
:101330001A6F22F004021A671A6F22F080021A67ED
:10134000D9E7214B1A6F42F004021A671A6F22F094
:1013500080021A671A6F42F001021A67CBE71A4B34
:101360001A6F42F004021A671A6F42F080021A677D
:101370001A6F42F001021A67BDE701F081FD0546D0
:10138000114B1B6F13F0020F3FF467AF01F078FDB4
:10139000401B41F288339842F2D90320C9E00A4A3F
:1013A000136823F08073136001F06AFD0546064B55
:1013B0001B6813F0007F0BD001F062FD401B022878
:1013C000F5D90320B5E000BF004402580048025898
:1013D0005F4B996A5F4A0A40A16AE06A41EA0011DC
:1013E0000A439A62226B013AC2F30802616B013927
:1013F000490289B20A43A16B0139090401F4FE01D3
:101400000A43E16B0139090601F0FE410A431A6300
:10141000DA6A22F00102DA625A6B6FF3CF02A16C32
:1014200042EAC1025A63DA6A22F00C02216C0A43D2
:10143000DA62DA6A22F00202616C0A43DA62DA6A7C
:1014400042F48032DA62DA6A42F40032DA62DA6A4C
:1014500042F48022DA62DA6A42F00102DA621A6841
:1014600042F080721A6001F00BFD0446384B1B6895
:1014700013F0007F06D101F003FD001B0228F5D90F
:10148000032056E0002054E0002052E030498A6AF0
:10149000086B012B4ED002F00303A16A8B424BD1A3
:1014A000C2F30512E36A9A4248D1C0F30802236BE3
:1014B000013B9A4244D1C0F34622636B013B9A42FE
:1014C00040D1C0F30642A36B013B9A423CD1C0F32A
:1014D0000660E36B013B984238D11D4B5B6BC3F355
:1014E000CC03A26C9A4201D1002022E0184AD36AB0
:1014F00023F00103D36201F0C3FC054601F0C0FCF8
:10150000A842FBD0124A536B6FF3CF03A16C43EA9E
:10151000C1035363D36A43F00103D362002008E0A0
:1015200001207047012004E0012002E0012000E0DA
:10153000002038BD0120FCE70120FAE70120F8E790
:101540000120F6E70120F4E70120F2E70120F0E7AF
:10155000004402580CFCFFFF754B1B6903F0380375
:10156000102B00F0DE80182B0FD0002B40F0DB801A
:101570006F4B1B6813F0200F00F0D7806C4B1B687B
:10158000C3F3C1036B48D840704710B4684B9A6AE4
:1015900002F003029C6AC4F30510D96A01F001014C
:1015A0005B6BC3F3CC0301FB03F307EE903AF8EE59
:1015B000677A14F47C7F77D0012A4AD0022A76D049
:1015C000002A40F091805A4B1B6813F0200F23D063
:1015D00057490A68C2F3C102564BD34007EE103A8E
:1015E000F8EE476A07EE100AB8EE476A86EE867A8A
:1015F0000B6BC3F3080306EE903AF8EE666A9FEDB4
:101600004E6A67EE867A76EEA77AF7EE006A77EE94
:10161000A67A27EE277A38E007EE100AF8EE476A36
:101620009FED466A86EE267A414B1B6BC3F3080397
:1016300006EE903AF8EE666A9FED3F6A67EE867AAC
:1016400076EEA77AF7EE006A77EEA67A27EE277A8B
:101650001BE007EE100AF8EE476A9FED396A86EE46
:10166000267A334B1B6BC3F3080306EE903AF8EE71
:10167000666A9FED316A67EE867A76EEA77AF7EEB4
:10168000006A77EEA67A27EE277A294B1B6BC3F305
:101690004623013307EE903AF8EE677AC7EE276AE1
:1016A000FCEEE67A17EE900A5DF8044B704707EE01
:1016B000100AF8EE476A9FED236A86EE267A1C4BE5
:1016C0001B6BC3F3080306EE903AF8EE666A9FEDD3
:1016D0001A6A67EE867A76EEA77AF7EE006A77EEF8
:1016E000A67A27EE277AD0E707EE100AF8EE476AC7
:1016F0009FED136A86EE267A0D4B1B6BC3F308032E
:1017000006EE903AF8EE666A9FED0B6A67EE867A0F
:1017100076EEA77AF7EE006A77EEA67A27EE277ABA
:10172000B3E709487047094870470248704700BF4F
:10173000004402580090D003000000390024744C8B
:101740000024744A0024F44A00127A0000093D0083
:10175000002800F0328170B50D4604469B4B1B6893
:1017600003F00F038B420BD2984A136823F00F0348
:101770000B431360136803F00F038B4240F01F818B
:10178000236813F0040F0CD02269914B9B6903F07E
:1017900070039A4205D98E498B6923F070031A436E
:1017A0008A61236813F0080F0CD06269884BDB69EB
:1017B00003F070039A4205D98549CB6923F0700381
:1017C0001A43CA61236813F0100F0CD0A269804B32
:1017D000DB6903F4E0639A4205D97D49CB6923F4C0
:1017E000E0631A43CA61236813F0200F0CD0E2694A
:1017F000774B1B6A03F070039A4205D974490B6A50
:1018000023F070031A430A62236813F0020F0CD00E
:10181000E2686F4B9B6903F00F039A4205D96C494C
:101820008B6923F00F031A438A61236813F0010FB9
:1018300041D0674A936923F47063A1680B439361B5
:101840006368022B0AD0032B27D0012B2CD0604ACF
:10185000126812F0040F06D10120ADE0126812F4F4
:10186000003F00F0AE805A490A6922F00702134394
:101870000B6101F005FB0646554B1B6903F038036D
:101880006268B3EBC20F16D001F0FAFA801B41F286
:1018900088339842F0D903208EE04D4A126812F046
:1018A000007FE0D1012087E0494A126812F4807F6E
:1018B000D9D1012080E0236813F0020F0CD0E26838
:1018C000434B9B6903F00F039A4205D240498B6951
:1018D00023F00F031A438A613C4B1B6803F00F038C
:1018E000AB420AD9394A136823F00F032B43136024
:1018F000136803F00F03AB4265D1236813F0040FA4
:101900000CD02269324B9B6903F070039A4205D2D6
:101910002F498B6923F070031A438A61236813F0FF
:10192000080F0CD062692A4BDB6903F070039A42FE
:1019300005D22749CB6923F070031A43CA61236893
:1019400013F0100F0CD0A269214BDB6903F4E063A4
:101950009A4205D21E49CB6923F4E0631A43CA6157
:10196000236813F0200F0CD0E269194B1B6A03F0B7
:1019700070039A4205D216490B6A23F070031A438A
:101980000A62FFF7E9FD12498B69C3F30323114A89
:10199000D35C03F01F03D8408B6903F00F03D35CC3
:1019A00003F01F0320FA03F30B4A13600B4B18607C
:1019B0000B4B1868FEF7C8FE70BD01207047012070
:1019C000FAE70120F8E70120F6E700BF0020005207
:1019D00000440258BC4C00080C00002010000020FD
:1019E0000800002008B5FFF7B7FD0B4A9369C3F361
:1019F00003230A49CB5C03F01F0320FA03F3926927
:101A000002F00F02885C00F01F0023FA00F0044A85
:101A10001060044A136008BD00440258BC4C000822
:101A20000C0000201000002008B5FFF7DBFF054B7D
:101A3000DB69C3F30213044AD35C03F01F03D840ED
:101A400008BD00BF00440258BC4C000808B5FFF7B1
:101A5000C9FF054BDB69C3F30223044AD35C03F0DF
:101A60001F03D84008BD00BF00440258BC4C00080A
:101A70003F230360114B1A6902F0070242609A6922
:101A800002F4706282609A6902F00F02C2609A6981
:101A900002F070020261DA6902F070024261DA69F2
:101AA00002F4E06282611B6A03F07003C361044BBD
:101AB0001B6803F00F030B60704700BF004402581F
:101AC00000200052404B9B6A03F00303032B79D0A4
:101AD00070B505460E463C4A136823F080631360D8
:101AE00001F0CEF90446384B1B6813F0006F06D0A6
:101AF00001F0C6F9031B022BF5D9032070BD324B50
:101B00009A6A22F47C32296842EA01329A626A684F
:101B1000013AC2F30802A9680139490289B20A43AD
:101B2000E9680139090401F4FE010A432969013910
:101B3000090601F0FE410A439A63DA6A22F0C00204
:101B400069690A43DA62DA6A22F02002A9690A4363
:101B5000DA62DA6A22F01002DA62DA6B6FF3CF022D
:101B6000E96942EAC102DA63DA6A42F01002DA6233
:101B7000C6B91A46DB6A43F40023D362124A1368DB
:101B800043F08063136001F07BF904460E4B1B6841
:101B900013F0006F14D101F073F9001B0228F5D97E
:101BA0000320ABE7012E05D0074AD36A43F40013A4
:101BB000D362E3E7044AD36A43F48013D362DDE7D8
:101BC00000209BE70120704700440258404B9B6A6D
:101BD00003F00303032B79D070B505460E463C4A4B
:101BE000136823F08053136001F04AF90446384B20
:101BF0001B6813F0005F06D001F042F9031B022BB3
:101C0000F5D9032070BD324B9A6A22F07C722968A4
:101C100042EA01529A626A68013AC2F30802A9686C
:101C20000139490289B20A43E9680139090401F41A
:101C3000FE010A4329690139090601F0FE410A4300
:101C40001A64DA6A22F4406269690A43DA62DA6A7B
:101C500022F40072A9690A43DA62DA6A22F4807215
:101C6000DA625A6C6FF3CF02E96942EAC1025A6440
:101C7000DA6A42F48072DA62C6B91A46DB6A43F461
:101C80008003D362124A136843F08053136001F05B
:101C9000F7F804460E4B1B6813F0005F14D101F0F7
:101CA000EFF8001B0228F5D90320ABE7012E05D081
:101CB000074AD36A43F08073D362E3E7044AD36AE6
:101CC00043F40003D362DDE700209BE70120704767
:101CD00000440258F8B50446036813F0006F30D092
:101CE000C36EB3F5001F26D00ED8ABB1B3F5801F7D
:101CF00007D102210830FFF7E5FE054695B12E46D3
:101D000021E0012635461EE0B3F5401F01D1002534
:101D100008E00126354616E0974AD36A43F40033BB
:101D2000D3620025944A136D23F44013E16E0B43F4
:101D30001365002607E002212830FFF747FF05461C
:101D4000DCE700263546236813F4807F14D0A36DAA
:101D5000042B31D8DFE803F0032229080800864A63
:101D6000D36A43F40033D3624DBB834A136D23F02F
:101D70000703A16D0B431365236813F4007F42D062
:101D8000E36D802B31D01FD84BB3402B19D10021EC
:101D900004F10800FFF796FE05462CE0002104F14F
:101DA0000800FFF78FFE0546DEE7002104F128005A
:101DB000FFF70CFF0546D7E701263546DCE72E4640
:101DC000DAE7012635461EE0B3F5807F13D0B3F580
:101DD000A07F10D0C02B0ED00126354613E0664AF6
:101DE000D36A43F40033D36205E0002104F12800F4
:101DF000FFF7ECFE0546D5B95F4A136D23F4E07397
:101E0000E16D0B431365236813F4806F34D0236EA8
:101E1000B3F5806F22D00FD8D3B1B3F5007F08D1CE
:101E2000002104F10800FFF74DFE05461CE02E4698
:101E3000E9E7012635461FE0B3F5006F14D0B3F58E
:101E4000206F11D0B3F5C06F0ED00126354613E0D8
:101E5000494AD36A43F40033D36205E0002104F118
:101E60002800FFF7B3FE0546BDB9434A136D23F4BE
:101E70006063216E0B431365236813F0007F24D049
:101E8000E36C202B13D00DD8BBB1102B07D13A4AED
:101E9000D36A43F40033D3620FE02E46ECE7012609
:101EA000354612E0302B08D0012635460DE00221E0
:101EB00004F10800FFF706FE0546D5B92E4AD36C9B
:101EC00023F03003E16C0B43D364236813F4805F89
:101ED00031D0636EB3F5005F1FD00FD8BBB1B3F53F
:101EE000805F08D1002104F10800FFF7EBFD0546F3
:101EF00019E02E46E9E7012635461CE0B3F5405FC0
:101F000011D0B3F5804F0ED00126354613E01A4AA2
:101F1000D36A43F40033D36205E0002104F12800C2
:101F2000FFF754FE054615BB134A136D23F4E04337
:101F3000616E0B431365236813F4005F32D0A36E08
:101F4000B3F5003F26D019D843B1B3F5803F10D187
:101F5000012104F10800FFF7B5FD05460DBB064A57
:101F6000136D23F4E023A16E0B4313651AE02E4694
:101F7000E1E70126354615E000440258B3F5802F0D
:101F8000ECD0B3F5A02FE9D0B3F5403FE6D0012661
:101F9000354607E0012104F12800FFF717FE05464A
:101FA000DCE72E46236813F4804F18D0D4F8B03005
:101FB000B3F1005F38D024D843B1B3F1805F1DD1B5
:101FC000012104F10800FFF77DFD05469DBB904A05
:101FD000936D23F0E043D4F8B0100B43936523686E
:101FE00013F4004F3FD0A36FB3F1805F25D0B3F15E
:101FF000005F30D033B30126354634E00126354644
:10200000EDE7B3F1A04FE1D008D8B3F1405FDDD0E8
:10201000B3F1804FDAD001263546E0E7B3F1C04F87
:10202000D4D001263546DAE7012104F12800FFF774
:10203000CDFD0546CAE72E46D1E7754AD36A43F47B
:102040000033D36275B9724A136D23F04053A16F08
:102050000B43136507E0012104F10800FFF732FD8F
:102060000546EFE72E46236813F0807F13D0A36C5C
:10207000032B3CD8DFE803F007023407644AD36A35
:1020800043F40033D362ADBB614AD36C23F0030346
:10209000A16C0B43D364236813F4800F2CD1236805
:1020A00013F0010F00F0A580D4F88430282B00F243
:1020B0009E80DFE803F08B9C9C9C9C9C9C9C859C58
:1020C0009C9C9C9C9C9C959C9C9C9C9C9C9C8B9C68
:1020D0009C9C9C9C9C9C8B9C9C9C9C9C9C9C8B00FE
:1020E000022104F10800FFF7EDFC0546CBE70126CD
:1020F0003546D0E72E46CEE7464A136843F4807350
:10210000136000F0BDFE0746424B1B6813F4807F4E
:1021100005D100F0B5FEC01B6428F5D90325002DBC
:102120004AD13B4B1B6FD4F8B420534013F4407F8B
:102130000CD0374B1A6F22F44072196F41F4803182
:102140001967196F21F4803119671A67D4F8B43010
:10215000B3F5807F15D08DBBD4F8B43003F4407252
:10216000B2F5407F1ED02A4A136923F47C531361D1
:1021700027490B6FD4F8B420C2F30B0213430B674B
:102180008DE700F07DFE0746214B1B6F13F0020F19
:10219000E1D100F075FEC01B41F288339842F3D9BB
:1021A0000325D8E71A48026922F47C521A4901EA49
:1021B000131313430361DBE72E4670E72E466EE7E9
:1021C000012104F10800FFF77DFC0546F5B9104A2E
:1021D000536D23F03803D4F884100B43536508E0A3
:1021E000012104F12800FFF7F1FC0546EEE7012686
:1021F0003546236813F0020F1FD0D4F88030052B2A
:1022000033D8DFE803F0110B2B1111112E46F0E744
:102210000044025800480258CFFFFF00012104F19A
:102220000800FFF74FFC054615BBB74A536D23F076
:102230000703D4F880100B435365236813F0040F91
:1022400029D0D4F89C30052B00F20881DFE813F088
:1022500018001200FF00180018001800012104F1F6
:102260002800FFF7B3FC0546DEE701263546E4E724
:102270002E46E2E7012104F10800FFF723FC0546A2
:10228000002D40F0EE80A04A936D23F00703D4F8B0
:102290009C100B439365236813F0200F1DD0D4F8D6
:1022A0009830B3F1005F00F0F08000F2DF804BB1B6
:1022B000B3F1805F40F0D780002104F10800FFF700
:1022C00001FC0546002D40F0E7808F4A536D23F056
:1022D000E043D4F898100B435365236813F0400F84
:1022E0001DD0D4F8A430B3F5006F00F0E98000F2FF
:1022F000D8804BB1B3F5806F40F0D080002104F15D
:102300000800FFF7DFFB0546002D40F0E0807E4A25
:10231000936D23F4E053D4F8A4100B439365236822
:1023200013F0800F1DD0D4F8A830B3F5804F00F023
:10233000E28000F2D1804BB1B3F5005F40F0C9807C
:10234000002104F10800FFF7BDFB0546002D40F019
:10235000D9806D4A936D23F46043D4F8A8100B43E1
:102360009365236813F0080F0DD0D4F88C30B3F5C3
:10237000805F00F0CB80644A536D23F44053D4F85F
:102380008C100B435365236813F0100F0DD0D4F855
:10239000A030B3F5807F00F0C3805B4A936D23F4D7
:1023A0004073D4F8A0100B439365236813F4002FF7
:1023B0001CD0D4F8AC30B3F5803F00F0BB80B3F54F
:1023C000003F08D0002B40F0BC80002104F1080041
:1023D000FFF778FB0546002D40F0B6804A4A936D22
:1023E00023F44033D4F8AC100B439365236813F403
:1023F000802F1CD0D4F89030B3F5001F00F0A680D9
:10240000B3F5401F08D0B3F5801F40F0A6803E4AC8
:10241000D36A43F40033D362002D40F0A1803A4ADE
:10242000536D23F44013D4F890100B435365236885
:1024300013F4803F00F0AC80236D002B00F09280FD
:10244000B3F5803F00F09C8001263546A0E00121D5
:1024500004F12800FFF7BAFB054611E701263546CF
:1024600019E72E4617E70126354636E7B3F1804FC8
:102470003FF428AFB3F1A04F3FF424AFB3F1405F76
:102480003FF420AF0126354627E7022104F128005A
:10249000FFF79CFB054615E72E461EE7012635464D
:1024A0003DE7B3F5805F3FF42FAFB3F5A05F3FF496
:1024B0002BAFB3F5406F3FF427AF012635462EE72B
:1024C000022104F12800FFF781FB05461CE72E4698
:1024D00025E70126354644E7B3F5004F3FF436AF14
:1024E000B3F5204F3FF432AFB3F5C04F3FF42EAFFA
:1024F0000126354635E7022104F12800FFF766FB87
:10250000054623E72E462CE700440258022104F139
:102510002800FFF75BFB00283FF42DAF01262AE7D8
:10252000022104F12800FFF751FB00283FF435AFEA
:10253000012632E7022104F12800FFF747FB054698
:1025400049E70126354651E72E464FE7012104F1C0
:102550002800FFF73BFB05465EE70126354666E7A8
:102560002E4664E76F4AD36A43F40033D36275B9E9
:102570006C4AD36C23F48033216D0B43D36407E0A2
:10258000022104F10800FFF79DFA0546EFE72E4609
:10259000236813F0005F11D1236813F4003F28D0A3
:1025A000D4F88830B3F5807F14D010D9B3F5007F0C
:1025B00015D0B3F5407F12D001261AE0022104F1B4
:1025C0002800FFF703FB0028E6D00126E4E733B13B
:1025D00001260EE0534AD36A43F40033D362002D40
:1025E00068D1504A536D23F44073D4F888100B43DC
:1025F0005365236813F4801F06D04A4A136D23F0F5
:102600000043E16F0B431365236813F4001F06D0EA
:10261000444A136D23F08073216F0B4313652368C5
:1026200013F4006F06D03F4A936D23F00063616F8F
:102630000B439365236813F0804F09D0394B1A6917
:1026400022F400421A611A69D4F8B8100A431A61D8
:102650002368002B06DA334AD36C23F04053616DB4
:102660000B43D364236813F4000F07D02D4A536D36
:1026700023F44003D4F894100B435365636813F0BC
:10268000010F19D1636813F0020F1ED1636813F0B4
:10269000040F23D1636813F0080F28D1636813F087
:1026A000100F2DD1636813F0200F32D106B101262F
:1026B0003046F8BD2E469CE7002104F10800FFF7E4
:1026C00001FA0028DED00646DCE7012104F108000B
:1026D000FFF7F8F90028D9D00646D7E7022104F120
:1026E0000800FFF7EFF90028D4D00646D2E7002112
:1026F00004F12800FFF76AFA0028CFD00646CDE79C
:10270000012104F12800FFF761FA0028CAD006462B
:10271000C8E7022104F12800FFF758FA0028C5D0C5
:102720000126C5E70044025808B5FFF75BF9054BE1
:102730001B6AC3F30213044AD35C03F01F03D8409F
:1027400008BD00BF00440258BC4C000810B4794BCF
:102750009A6A9C6AC4F3053CD96AC1F30011DB6B29
:10276000C3F3CC0301FB03F314F47C3F00F0DD80E2
:1027700002F0030207EE903AF8EE677A012A4BD096
:10278000022A00F09880002A40F0B280694B1B6852
:1027900013F0200F23D067490A68C2F3C102664BC9
:1027A000D34007EE103AF8EE476A07EE10CAB8EECB
:1027B000476A86EE867A8B6BC3F3080306EE903A7F
:1027C000F8EE666A9FED5D6A67EE867A76EEA77A26
:1027D000F7EE006A77EEA67A27EE277A38E007EE62
:1027E00010CAF8EE476A9FED566A86EE267A514B7C
:1027F0009B6BC3F3080306EE903AF8EE666A9FED12
:102800004F6A67EE867A76EEA77AF7EE006A77EE81
:10281000A67A27EE277A1BE007EE10CAF8EE476A81
:102820009FED486A86EE267A424B9B6BC3F3080302
:1028300006EE903AF8EE666A9FED406A67EE867A99
:1028400076EEA77AF7EE006A77EEA67A27EE277A79
:10285000384A936BC3F3462307EE903AF8EE677A53
:10286000F7EE006A77EEA67A87EE276ABCEEC66AB4
:1028700080ED006A936BC3F3064307EE903AF8EEDF
:10288000677A77EEA67A87EE276ABCEEC66A80ED95
:10289000016A936BC3F3066307EE903AF8EE677A2A
:1028A00077EEA67AC7EE276AFCEEE66AC0ED026A0A
:1028B0005DF8044B704707EE10CAF8EE476A9FEDCB
:1028C000226A86EE267A1B4B9B6BC3F3080306EE47
:1028D000903AF8EE666A9FED196A67EE867A76EEB0
:1028E000A77AF7EE006A77EEA67A27EE277AAFE7A7
:1028F00007EE10CAF8EE476A9FED126A86EE267A56
:102900000C4B9B6BC3F3080306EE903AF8EE666A35
:102910009FED0A6A67EE867A76EEA77AF7EE006A8E
:1029200077EEA67A27EE277A92E7002303604360CA
:102930008360BDE7004402580090D00300000039D6
:102940000024744C0024744A0024F44A10B4794BD7
:102950009A6A9C6AC4F3055CD96AC1F300215B6C76
:10296000C3F3CC0301FB03F314F07C7F00F0DD80A4
:1029700002F0030207EE903AF8EE677A012A4BD094
:10298000022A00F09880002A40F0B280694B1B6850
:1029900013F0200F23D067490A68C2F3C102664BC7
:1029A000D34007EE103AF8EE476A07EE10CAB8EEC9
:1029B000476A86EE867A0B6CC3F3080306EE903AFC
:1029C000F8EE666A9FED5D6A67EE867A76EEA77A24
:1029D000F7EE006A77EEA67A27EE277A38E007EE60
:1029E00010CAF8EE476A9FED566A86EE267A514B7A
:1029F0001B6CC3F3080306EE903AF8EE666A9FED8F
:102A00004F6A67EE867A76EEA77AF7EE006A77EE7F
:102A1000A67A27EE277A1BE007EE10CAF8EE476A7F
:102A20009FED486A86EE267A424B1B6CC3F308037F
:102A300006EE903AF8EE666A9FED406A67EE867A97
:102A400076EEA77AF7EE006A77EEA67A27EE277A77
:102A5000384A136CC3F3462307EE903AF8EE677AD0
:102A6000F7EE006A77EEA67A87EE276ABCEEC66AB2
:102A700080ED006A136CC3F3064307EE903AF8EE5C
:102A8000677A77EEA67A87EE276ABCEEC66A80ED93
:102A9000016A136CC3F3066307EE903AF8EE677AA7
:102AA00077EEA67AC7EE276AFCEEE66AC0ED026A08
:102AB0005DF8044B704707EE10CAF8EE476A9FEDC9
:102AC000226A86EE267A1B4B1B6CC3F3080306EEC4
:102AD000903AF8EE666A9FED196A67EE867A76EEAE
:102AE000A77AF7EE006A77EEA67A27EE277AAFE7A5
:102AF00007EE10CAF8EE476A9FED126A86EE267A54
:102B00000C4B1B6CC3F3080306EE903AF8EE666AB2
:102B10009FED0A6A67EE867A76EEA77AF7EE006A8C
:102B200077EEA67A27EE277A92E7002303604360C8
:102B30008360BDE7004402580090D00300000039D4
:102B40000024744C0024744A0024F44AF0B583B085
:102B500000236BE085685E000324B44025EA040589
:102B6000CC68B4402C438460456825EA0C054C6869
:102B7000C4F300149C402C43446069E0DD08083530
:102B800050F8254003F0070C4FEA8C0C4FF00F0E65
:102B90000EFA0CFE24EA0E0E0C6904FA0CF444EA58
:102BA0000E0440F825406BE0092400E0002404FAFC
:102BB0000EF42C430CF1020C694D45F82C404FF0FB
:102BC000B0442568D44325EA02064F6817F4801FF5
:102BD00001D042EA05064FF0B0452E606D6804EA68
:102BE00005064F6817F4001F01D042EA05064FF0B2
:102BF000B0456E60D5F8845004EA05064F6817F4B6
:102C0000003F01D042EA05064FF0B045C5F88460A8
:102C1000D5F880502C404E6816F4803F01D042EA2F
:102C200005044FF0B042C2F8804001330A6832FA1E
:102C300003F400F092804FF0010C0CFA03FC1CEA44
:102C40000202F2D04C6804F00304013C012C81D94B
:102C50004C6804F00304032C0CD0C4685D004FF0F2
:102C6000030C0CFA05FC24EA0C0C8C68AC4044EA1A
:102C70000C04C4604C6804F00304022C3FF47EAFE3
:102C800004684FEA430E4FF0030C0CFA0EFC24EAE2
:102C90000C0C4C6804F0030404FA0EF444EA0C042F
:102CA00004604C6814F4403FBFD02E4CD4F854510B
:102CB00045F00205C4F85451D4F8544104F002041C
:102CC0000194019C4FEA930C0CF10205244C54F83A
:102CD000255003F0030E4FEA8E0E0F2404FA0EF473
:102CE00025EA0405204CA0423FF460AF04F580645F
:102CF000A04222D004F58064A04220D004F5806474
:102D0000A0421ED004F58064A0421CD004F580646B
:102D1000A0421AD004F58064A04218D004F5806463
:102D2000A04216D004F58064A04214D004F580645B
:102D3000A0423FF439AF0A2439E7012437E70224DF
:102D400035E7032433E7042431E705242FE706247D
:102D50002DE707242BE7082429E703B0F0BD00BFC7
:102D60000004005800440258000002580AB1816172
:102D7000704709048161704738B50446224BDB680F
:102D800003F00703062B07D01F4BDB6803F03F035C
:102D9000834236D0012038BD1B4AD36823F03F035D
:102DA0000343D36000F06CF80546174B5B6813F4DF
:102DB000005F07D100F064F8431BB3F57A7FF4D9C4
:102DC0000120E8E72E2C18BF1E2C08D02D2C14BF94
:102DD000002301231D2C02D00BB90020DBE700F0FB
:102DE0004FF80446084BDB6813F4803F07D100F02E
:102DF00047F8001BB0F57A7FF4D90120CBE700201B
:102E0000C9E70020C7E700BF0048025810B50320FB
:102E1000FEF702F8FEF7A0FB0F498B69C3F303230B
:102E20000E4AD35C03F01F03D8408B6903F00F03F5
:102E3000D35C03F01F0320FA03F3094A1360094B24
:102E400018600F20FDF780FC10B10124204610BD52
:102E50000446FDF75FFCF9E700440258BC4C00084B
:102E60000C00002010000020034B1B78034A11685F
:102E70000B441360704700BF0400002018040020BA
:102E8000014B1868704700BF1804002018B121B921
:102E9000426008467047012070470120704710B11A
:102EA00001600020704701207047000010B50368E2
:102EB000C3F3014203F01F03012199401301044AA7
:102EC0009C580C4203D09950436803B1984710BDF9
:102ED00088000058026852E8003F23F4907342E8EB
:102EE00000310029F6D1026802F1080353E8001FFF
:102EF0000D4B0B40083242E800310029F3D1C36E7C
:102F0000012B06D02023C0F88C300023C366436712
:102F10007047026852E8003F23F0100342E8003196
:102F20000029F6D1EEE700BFFEFFFFEF70B586B0D7
:102F3000044683680269134342691343C269134319
:102F400001680868904A02401A430A602268536880
:102F500023F44053E1680B435360A16922688B4B13
:102F60009A4201D0236A19439068894B03400B436E
:102F700093602268D36A23F00F03616A0B43D36224
:102F80002368844A934229D0834A934200F0948074
:102F9000824A934200F0AA80814A934200F0C080A6
:102FA000804A934200F0D6807F4A934200F0088125
:102FB0007E4A934200F02D817D4A934200F0408189
:102FC0007C4A934200F053817B4A934200F078811F
:102FD0006E4A934200F09D8180223BE0774A526D19
:102FE00002F03802282A34D8DFE812F02900330032
:102FF000330033003300330033003300AB013300C0
:103000003300330033003300330033002B00330030
:103010003300330033003300330033002D0033001E
:103020003300330033003300330033002F0033000C
:10303000330033003300330033003300310001220A
:1030400008E0082206E0102204E0202202E04022EC
:1030500000E080224D498B4200F08C81E069B0F5A0
:10306000004F00F00282202A00F25A82202A00F249
:10307000A482DFE812F071027702A202A2027A02B1
:10308000A202A202A2027F02A202A202A202A20243
:10309000A202A202A2028402A202A202A202A2022E
:1030A000A202A202A202A202A202A202A202A20200
:1030B000A202A202A2029002404A526D02F007024E
:1030C000052A11D8DFE812F006003F0108000A00C7
:1030D0000C000E000022BDE70822BBE71022B9E772
:1030E0002022B7E74022B5E78022B3E7334A526D8A
:1030F00002F00702052A11D8DFE812F006002701C6
:1031000008000A000C000E000022A3E70822A1E735
:1031100010229FE720229DE740229BE7802299E72B
:10312000264A526D02F00702052A11D8DFE812F094
:1031300006000F0108000A000C000E00002289E7BB
:10314000082287E7102285E7202283E7402281E7D3
:1031500080227FE7194A526D02F00702052A11D832
:10316000DFE812F00600F70008000A000C000E006D
:1031700000226FE708226DE710226BE7202269E743
:10318000402267E7802265E7F369FFCF000C005813
:10319000FFF4FF11001001400044004000480040CF
:1031A000004C0040005000400014014000780040F6
:1031B000007C004000180140001C014000440258FF
:1031C000694A526D02F03802282A20D8DFE802F05E
:1031D000151F1F1F1F1F1F1FC31F1F1F1F1F1F1F65
:1031E000171F1F1F1F1F1F1F191F1F1F1F1F1F1FFD
:1031F0001B1F1F1F1F1F1F1F1D0001222AE7082260
:1032000028E7102226E7202224E7402222E7802216
:1032100020E7554A526D02F00702052A0ED8DFE872
:1032200002F0039C0507090B002213E7082211E7AF
:1032300010220FE720220DE740220BE7802209E74A
:10324000494A526D02F00702052A0ED8DFE802F063
:1032500003870507090B0022FCE60822FAE6102284
:10326000F8E62022F6E64022F4E68022F2E63E4A24
:10327000526D02F03802282A20D8DFE802F0151F2C
:103280001F1F1F1F1F1F721F1F1F1F1F1F1F171F03
:103290001F1F1F1F1F1F191F1F1F1F1F1F1F1B1F48
:1032A0001F1F1F1F1F1F1D000122D3E60822D1E68A
:1032B0001022CFE62022CDE64022CBE68022C9E6CE
:1032C000294A526D02F03802282A20D8DFE802F09D
:1032D000151F1F1F1F1F1F1F4E1F1F1F1F1F1F1FD9
:1032E000171F1F1F1F1F1F1F191F1F1F1F1F1F1FFC
:1032F0001B1F1F1F1F1F1F1F1D000122AAE60822E0
:10330000A8E61022A6E62022A4E64022A2E6802219
:10331000A0E602F50E32926D02F00702052A0ED8E1
:10332000DFE802F003260507090B022292E60822D5
:1033300090E610228EE620228CE640228AE6802249
:1033400088E6042286E6042284E6042282E6042239
:1033500080E604227EE604227CE604227AE6042249
:1033600078E6042276E600BF00440258042271E6A3
:1033700004226FE6202A27D8022AC0F01081023AE0
:103380001E2A00F20E81DFE812F050000C015600F8
:103390000C010C010C015B000C010C010C010C0177
:1033A0000C010C010C0160000C010C010C010C0162
:1033B0000C010C010C010C010C010C010C010C01A5
:1033C0000C010C010C016C00402A2CD14FF4004080
:1033D000626A804B33F81220B0FBF2F3656805EBAC
:1033E0004501994200F2DF80B3EB053F00F2DD803A
:1033F000002633463146FCF75BFF090241EA1061C3
:1034000000026B08C0182A46334641F10001FCF760
:103410004FFFA0F54072704B9A4200F2C8802368BB
:10342000D8603046CAE00120C8E0FFF77DF90028E7
:10343000CED10020C2E003A8FFF788F90498F6E790
:103440006846FFF783FA0198F1E7644B1B6813F0B5
:10345000200F08D0614B1B68C3F3C1036048D840FC
:10346000B6E76048B4E75E48B2E7202A15D8202ABC
:1034700000F29F80DFE802F031379D9D3A9D9D9DCF
:103480003F9D9D9D9D9D9D9D449D9D9D9D9D9D9D23
:103490009D9D9D9D9D9D9D9D5000402A1BD1626AD2
:1034A0004C4B33F81230B0FBF3F06268530803EB77
:1034B0004003B3FBF2F3A3F110014FF6EF72914218
:1034C00079D89AB222F00F02C3F342031343226861
:1034D000D360002072E0012070E0FEF7A5FA00281A
:1034E000DDD100206AE0FEF7B1FAF8E703A8FFF7A4
:1034F0002DF90498F3E76846FFF728FA0198EEE7FC
:10350000364B1B6813F0200F08D0344B1B68C3F3F5
:10351000C1033348D840C2E73248C0E73048BEE76D
:10352000402A17D14FF40040626A2A4B33F8123018
:10353000B0FBF3F0636800EB5300B0FBF3F0A0F1D5
:1035400010024FF6EF739A4242D8236880B2D860D7
:10355000002033E0012031E0FEF766FA0028E3D1D5
:1035600000202BE0FEF772FAF8E703A8FFF7EEF869
:103570000498F3E76846FFF7E9F90198EEE7174B7F
:103580001B6813F0200F08D0144B1B68C3F3C10352
:103590001348D840C8E71348C6E71148C4E70120DC
:1035A0000CE001200AE0012008E0012006E00120F3
:1035B00004E0012002E0012000E001200123A4F842
:1035C0006A30A4F8683000236367A36706B070BD53
:1035D0000120F3E7944C0008FFFC0F000044025860
:1035E0000090D00300093D00836A13F0080F06D055
:1035F0000268536823F40043816B0B435360836A72
:1036000013F0010F06D00268536823F40033C16A37
:103610000B435360836A13F0020F06D002685368AD
:1036200023F48033016B0B435360836A13F0040F60
:1036300006D00268536823F48023416B0B43536028
:10364000836A13F0100F06D00268936823F4805346
:10365000C16B0B439360836A13F0200F06D002689E
:10366000936823F40053016C0B439360836A13F057
:10367000400F0AD00268536823F48013416C0B4357
:103680005360436CB3F5801F0BD0836A13F0800F37
:1036900006D00268536823F40023C16C0B435360C7
:1036A00070470268536823F4C003816C0B43536076
:1036B000EBE72DE9F84305460E4617469946DDF837
:1036C00020802B68DC6936EA04040CBF0124002446
:1036D000BC423AD1B8F1FF3FF3D0FFF7D1FBA0EBEA
:1036E0000900404534D8B8F1000F33D02B681A6870
:1036F00012F0040FE5D0B6F1400218BF0122802E6F
:10370000DFD0002ADDD0DA6912F0080F11D1DA69B2
:1037100012F4006FD5D04FF400621A622846FFF70A
:10372000D9FB2023C5F89030002385F8843003208E
:103730000CE008241C622846FFF7CCFBC5F890403B
:10374000002385F88430012000E00020BDE8F883E4
:103750000320FBE70320F9E730B583B004460023DC
:10376000C0F89030FFF78CFB05462268126812F013
:10377000080F10D123681B6813F0040F28D12023F1
:10378000C4F88830C4F88C300020E066206784F8E4
:10379000840003B030BD6FF07E43009303460022E7
:1037A0004FF400112046FFF784FF0028E2D0226882
:1037B00052E8003F23F0800342E800310029F6D1AF
:1037C0002023C4F88830002384F884300320E0E705
:1037D0006FF07E4300932B4600224FF48001204679
:1037E000FFF767FF0028CAD0226852E8003F23F4A1
:1037F000907342E800310029F6D1226802F10803F3
:1038000053E8003F23F00103083242E80031002969
:10381000F3D12023C4F88C30002384F884300320B3
:10382000B7E778B310B50446D0F888300BB324233B
:10383000C4F888302268136823F001031360A36A78
:10384000E3B92046FFF772FB012811D022685368C4
:1038500023F4904353602268936823F02A03936013
:103860002268136843F0010313602046FFF774FFDA
:1038700010BD80F88430FCF7D1FED8E72046FFF772
:10388000B3FEDEE701207047436E2BB90123A0F899
:103890006A30A0F86830704730B403689A68C2F3A1
:1038A00042629968490F094D6B5C1B01084C615CD1
:1038B00093FBF1F3A0F86A30AB5C1B01A25C93FBB5
:1038C000F2F3A0F8683030BC704700BFB44C000879
:1038D000AC4C000890F88430012B18D0012380F8FC
:1038E00084302423C0F8883003681A68196821F0EE
:1038F0000101196022F000520023436601680A604A
:103900002022C0F8882080F88430184670470220B2
:10391000704738B590F88430012B1DD00446012340
:1039200080F884302423C0F8883003681D681A6842
:1039300022F001021A600268936823F06043194381
:103940009160FFF7A1FF23681D602023C4F8883031
:10395000002084F8840038BD0220FCE738B590F8D8
:103960008430012B1DD00446012380F884302423A9
:10397000C0F8883003681D681A6822F001021A60D6
:103980000268936823F0606319439160FFF77CFF3E
:1039900023681D602023C4F88830002084F8840048
:1039A00038BD0220FCE700002B4AD2F8883043F4EF
:1039B0007003C2F88830294B1B6803F00F03022BF9
:1039C00006D8264A136823F00F0343F0030313605D
:1039D000234B1A6842F001021A6000221A6119682A
:1039E000204A0A401A601D4B1B6813F00C0F06D0CA
:1039F0001A4A136823F00F0343F003031360184BB4
:103A000000229A61DA611A62174999621749D962EC
:103A1000174919635A639963DA6319645A64196818
:103A200021F4802119601A66D3F8343113F4805FD1
:103A300010D10B4BD3F8342142F48052C3F8342117
:103A40000C4A43F2D2011160D3F8342122F480529F
:103A5000C3F83421704700BF00ED00E000200052A1
:103A6000004402587FEDF6EA000202020000FF0166
:103A70008002010100400052054AD36823F002038E
:103A8000D360034B5B6813F4005FFAD0704700BF4C
:103A90000048025800F1080343604FF0FF32826093
:103AA000C360036100230360704700230361704714
:103AB00043684B609A688A60516099600861036846
:103AC00001330360704730B40D68B5F1FF3F11D08A
:103AD00000F108031C465B681A68AA42FAD96368B9
:103AE0004B6099608C60616008610368013303601A
:103AF00030BC70470469F2E70369416882688A60F4
:103B0000416851605A68824206D0002202611A68F8
:103B1000013A1A601868704782685A60F5E7000039
:103B2000084B1B681B6823B9074B4FF0FF321A6024
:103B30007047044B1B68DB68DB685A68024B1A60ED
:103B4000704700BF8C040020240400202DE9F047BA
:103B500007469846089DDDF824900A9C266B6FF076
:103B60004043134406EB830626F00706C1B308461C
:103B70004FF0000CBCF10F0F09D810F80C2004EB2B
:103B80000C0383F8342012B10CF1010CF2E700238E
:103B900084F84330062D00D90625E56265644FF0B0
:103BA000000AC4F848A0201DFFF77FFF04F11800A9
:103BB000FFF77BFF2461C5F10705A5616462C4F8C6
:103BC0004CA084F850A042463946304600F00CFD27
:103BD0002060B9F1000F01D0C9F80040BDE8F087BE
:103BE000002384F83430D5E738B5002407E004EB2F
:103BF000840293000E481844FFF74CFF0134062C52
:103C0000F5D90C4D2846FFF745FF0B4C2046FFF732
:103C100041FF0A48FFF73EFF0948FFF73BFF09480D
:103C2000FFF738FF084B1D60084B1C6038BD00BF14
:103C3000B8040020A4040020900400207404002094
:103C400060040020480400208C0400208804002028
:103C500010B5044600F0F6FC214A136801331360E6
:103C6000204B1B685BB1204B1B686BB91D4B1B685D
:103C7000DA6AE36A9A4207D81A4B1C6004E0194BCF
:103C80001C601368012B28D0184A13680133136095
:103C9000E06A01238340164A11680B43136000EB6E
:103CA0008000211D134B03EB8000FFF701FF00F0A4
:103CB000EBFC0D4B1B687BB10A4B1B68DA6AE36AAD
:103CC0009A4209D24FF0E0234FF08052C3F8042DFE
:103CD000BFF34F8FBFF36F8F10BDFFF785FFD3E7A3
:103CE000440400204405002038040020280400205B
:103CF0003C040020B804002010B5044690F8513070
:103D000063B1012B11D0022B0ED04FF0500383F37F
:103D10001188BFF36F8FBFF34F8FFEE7006B00F08A
:103D2000E7FB204600F0E4FB10BD00F0E1FBFBE701
:103D30000F4B1B68D3B110B500F084FC0D4BDB6852
:103D4000DC68201DFFF7D8FE0B4A1368013B1360A7
:103D5000074A1368013B136000F096FC2046FFF70A
:103D6000CBFF034B1B68002BE6D110BD704700BF93
:103D70005C040020600400204404002008B5FFF724
:103D8000D7FF074B1B68012BF9D94FF0E0234FF009
:103D90008052C3F8042DBFF34F8FBFF36F8FEEE750
:103DA000B804002070B504460D461F4B1E681F4B1B
:103DB00018680430FFF7A0FE48B91C4B1B68DB6A8B
:103DC00001229A401A490B6823EA02030B60B4F1FE
:103DD000FF3F14BF00230123002D08BF00236BB950
:103DE0003444124B1B685C60A6420ED9114B186814
:103DF0000E4B19680431FFF766FE70BD0B4B196856
:103E000004310D48FFF754FEF7E70C4B1868074BD9
:103E100019680431FFF757FE094B1B68A342ECD920
:103E2000074B1C60E9E700BF400400204405002068
:103E30003C04002088040020480400208C0400205A
:103E40002404002030B587B00B9C7CB10C9DB5B12B
:103E500054250495049D542D1AD04FF0500383F33C
:103E60001188BFF36F8FBFF34F8FFEE74FF0500302
:103E700083F31188BFF36F8FBFF34F8FFEE74FF0CF
:103E8000500383F31188BFF36F8FBFF34F8FFEE7AB
:103E9000049D0C9D2C63022485F85140002403945A
:103EA000029505AC01940A9C0094FFF74FFE0C9814
:103EB000FFF7CEFE059807B030BD2DE9F04385B081
:103EC0000746884614461E46900000F08FFA08B355
:103ED0008146542000F08AFA0546A8B1C0F8309017
:103EE000002380F85130039302900D9B01930C9BAB
:103EF00000933346224641463846FFF727FE2846C0
:103F0000FFF7A6FE012007E0484600F0F1FA4FF067
:103F1000FF3001E04FF0FF3005B0BDE8F083000056
:103F200010B588B000240594069407AA06A905A830
:103F3000FCF71CFB059B0293069B01930094234610
:103F4000079A0E490E48FFF77DFF0E4B186090B19F
:103F50004FF0500383F31188BFF36F8FBFF34F8F80
:103F6000094B4FF0FF321A60084B01221A60084BD0
:103F70001C6000F001FC08B010BD00BF784C0008C8
:103F80007D3D000820040020240400203804002087
:103F900040040020024A136801331360704700BFD9
:103FA0001C040020F8B53A4B1B68002B69D1394B33
:103FB0001D6801351D60C5B9374B1B681B6843B1CF
:103FC0004FF0500383F31188BFF36F8FBFF34F8F10
:103FD000FEE7314A1168314B186810601960304AA9
:103FE000136801331360FFF79BFD2E4B1B68AB4238
:103FF0003DD900272C4B1B68DB6A03EB83039A0037
:104000002A4B9B58012B00D90127294B1B68002BF9
:104010003CD001273AE001271F4B1B681B6843B3C4
:104020001D4B1B68DB68DC6863689D4226D3261D38
:104030003046FFF761FDA36A1BB104F11800FFF7DA
:104040005BFDE36A01229A401A49086802430A604C
:1040500003EB83039A00314614481044FFF728FD10
:10406000E26A114B1B68DB6A9A42D4D2D4E700277C
:10407000D2E70C4B4FF0FF321A60BBE7094A1360DE
:10408000B8E70D4A13680133136000273846F8BDBE
:104090001C040020400400208C0400208804002020
:1040A0002C0400202404002044050020B804002033
:1040B000300400203C0400203404002038B5354B87
:1040C0001B6843B94FF0500383F31188BFF36F8F20
:1040D000BFF34F8FFEE700F0B5FA2E4B1A68013A96
:1040E0001A601B68002B4FD12B4B1B680BB90024A7
:1040F0004BE00024294B1B681BB3284BDB68DC68B2
:1041000004F11800FFF7F8FC251D2846FFF7F4FC22
:10411000E06A01238340224A11680B43136000EBDD
:10412000800029461F4B03EB8000FFF7C1FCE26AC9
:104130001D4B1B68DB6A9A42DCD31C4B01221A60C0
:10414000D8E70CB1FFF7ECFC194B1C6884B9174B8E
:104150001C68D4B14FF0E0234FF08052C3F8042D17
:10416000BFF34F8FBFF36F8F01240EE0013C07D0E8
:10417000FFF718FF0028F9D00C4B01221A60F5E771
:104180000B4B00221A60E2E7002400F07DFA204683
:1041900038BD00BF1C04002044040020740400202B
:1041A0003C040020B8040020440500203004002016
:1041B0003404002010B5A8B10446104B1B6843B16D
:1041C0004FF0500383F31188BFF36F8FBFF34F8F0E
:1041D000FEE7FFF7DFFE00212046FFF7E3FDFFF7D4
:1041E0006DFF48B94FF0E0234FF08052C3F8042D23
:1041F000BFF34F8FBFF36F8F10BD00BF1C040020B3
:10420000204B1B681BB1204B01221A6070471E4BCC
:1042100000221A601D4B1B68B3FA83F3DBB2C3F1B3
:104220001F0303EB83018A0019498A5842B94FF0F2
:10423000500383F31188BFF36F8FBFF34F8FFEE7F7
:10424000134803EB83018A000244516849685160B6
:1042500003EB830C4FEA8C0208320244914209D0EE
:1042600003EB83039A000A4B13445B68DA68094B3B
:104270001A607047486862469100054A0A445060D7
:10428000EEE700BF1C040020300400203C040020A6
:10429000B804002044050020842801D00330704772
:1042A0000020704708B5FFF73BFE002008BD2DE950
:1042B000F04387B00E464469C4B18569B5B147681B
:1042C000D0F80080D0F81090B0F90800FFF7E4FFB4
:1042D00002950194009033464A4641463846FFF71E
:1042E000B1FD0590059807B0BDE8F0834468056806
:1042F0000769B0F90800FFF7CFFF05AB0193009005
:104300003346BAB229462046FFF7D7FD0128E9D047
:104310000020E8E708B500B90120FFF74BFF0020B7
:1043200008BD0000124A12F0070F1ED0D11D21F067
:104330000701C1F5705313440A460E48026000217C
:1043400041601344083B23F007030B4803605960A6
:104350001960991A51601360084B1960084B196075
:10436000084B4FF000421A6070474FF47053E4E777
:1043700068050020600500205C0500205405002031
:104380005805002048050020164B1A461B6883423A
:10439000FBD3516802EB010C844509D0416800EB66
:1043A000010C634509D00360904219D0106070473A
:1043B0004068014451601046F0E710B40A4C24688C
:1043C000A3420BD05B681944416013681B6803600B
:1043D000904200D010605DF8044B70470460F7E72E
:1043E000704700BF600500205C05002038B504461A
:1043F000FFF7D0FD384B1B68B3B1384B1B681C422C
:1044000050D1002C50D004F1080214F0070F02D054
:1044100022F007020832002A55D0314B1B68934224
:1044200053D330490C6804E0FFF77CFFE5E72146F1
:104430001C466368934202D22368002BF7D1264BB7
:104440001B68A34243D00D68083523680B6063687E
:104450009B1A102B10D9A01810F0070F08D04FF09E
:10446000500383F31188BFF36F8FBFF34F8FFEE7C5
:1044700043606260FFF788FF626819490B689B1A06
:104480000B60194909688B4201D217490B60134B25
:104490001B681343636000232360144A13680133CD
:1044A000136002E0002500E00025FFF707FE15F08D
:1044B000070F0ED04FF0500383F31188BFF36F8FB7
:1044C000BFF34F8FFEE70025EFE70025EDE700255E
:1044D000EBE7284638BD00BF5C05002048050020FA
:1044E00058050020600500205405002050050020DC
:1044F000002834D038B50446A0F1080550F8043C33
:10450000174A1268134208D14FF0500383F3118801
:10451000BFF36F8FBFF34F8FFEE750F8081C41B118
:104520004FF0500383F31188BFF36F8FBFF34F8FAA
:10453000FEE723EA020340F8043CFFF72BFD54F8A2
:10454000041C084A13680B4413602846FFF71CFF3D
:10455000054A136801331360FFF7B0FD38BD70479B
:1045600048050020580500204C05002082B000239B
:1045700001930D4B1B68B3F1FF3F08D04FF0500380
:1045800083F31188BFF36F8FBFF34F8FFEE74FF0B8
:10459000500383F31188BFF36F8FBFF34F8F019BDD
:1045A000002BFCD002B070471400002008480068BF
:1045B000006880F308884FF0000080F3148862B62A
:1045C00061B6BFF34F8FBFF36F8F00DF00BF0000F6
:1045D00008ED00E0DFF80C00016841F470010160B3
:1045E0007047000088ED00E04FF0807340F8043C15
:1045F00021F0010140F8081C054B40F80C3C40F844
:10460000202C6FF0020340F8243C4438704700BF70
:104610006D450008000000000000000000000000E0
:10462000074B19680868B0E8F04F80F30988BFF3BA
:104630006F8F4FF0000080F311887047AFF3008058
:10464000440500204FF0500383F31188BFF36F8FB0
:10465000BFF34F8F0B4A136801331360012B00D057
:1046600070474FF0E023D3F8043D13F0FF0FF7D06D
:104670004FF0500383F31188BFF36F8FBFF34F8F59
:10468000FEE700BF14000020094B1B6843B94FF040
:10469000500383F31188BFF36F8FBFF34F8FFEE793
:1046A000013B034A13600BB983F31188704700BFC5
:1046B00014000020000000000000000000000000C6
:1046C000EFF30980BFF36F8F154B1A681EF0100FC0
:1046D00008BF20ED108A20E9F04F10602DE9090095
:1046E0004FF0500080F31188BFF34F8FBFF36F8FEF
:1046F000FFF786FD4FF0000080F3118809BC1968B0
:104700000868B0E8F04F1EF0100F08BFB0EC108A38
:1047100080F30988BFF36F8F704700BFAFF300804D
:104720004405002008B54FF0500383F31188BFF310
:104730006F8FBFF34F8FFFF735FC28B14FF0E023A9
:104740004FF08052C3F8042D002383F3118808BD75
:104750004FF0E022002313619361054B1B6805496C
:10476000A1FB03139B09013B5361072313617047AE
:1047700010000020D34D62104FF0E023D3F8002D3D
:104780003D4B9A421CD04FF0E023D3F8002D3B4B19
:104790009A421ED030B583B0394B1A78D2B201920A
:1047A000FF221A701B78DBB28DF803309DF80330BE
:1047B00003F05003334A1370334B07221A601BE097
:1047C0004FF0500383F31188BFF36F8FBFF34F8F08
:1047D000FEE74FF0500383F31188BFF36F8FBFF3F1
:1047E0004F8FFEE7284A1368013B13609DF80330A2
:1047F0005B00DBB28DF803309DF8033013F0800FBF
:10480000F0D1214B1B68032B08D04FF0500383F3EA
:104810001188BFF36F8FBFF34F8FFEE71B021A4A59
:10482000136003F4E0631360019BDBB2144A13705E
:104830004FF0E024D4F8203D43F47003C4F8203D49
:10484000D4F8203D43F07043C4F8203DFFF780FFCB
:1048500000250E4B1D60FFF7BDFED4F8343F43F03A
:104860004043C4F8343FFFF7A1FEFFF7C9FCFFF750
:104870007DFE284603B030BD71C20F4170C20F41AA
:1048800000E400E06C41002068410020140000209A
:10489000DFF838D0FFF7F0F8FFF786F80C480D493D
:1048A0000D4A002302E0D458C4500433C4188C428B
:1048B000F9D30A4A0A4C002301E013600432A242F1
:1048C000FBD300F019F8FBF7E7FD7047000002206A
:1048D0000000002018000020DC4C00081800002018
:1048E00070410020FEE702440346934200D1704726
:1048F00003F8011BF9E7000070B50D4B0D4D5B1B74
:104900009C100026A64209D100F096F90A4D0B4BE7
:104910005B1B9C100026A64205D170BD55F8043BD8
:1049200098470136EEE755F8043B98470136F2E721
:10493000D44C0008D44C0008D44C0008D84C0008D3
:104940002DE9F047089D0F4604468C46002B48D1C0
:104950008A42164661D9B2FA82F34BB1C3F1200202
:1049600001FA03FC20FA02F29E4042EA0C0C9C4041
:104970004FEA164EB7B2BCFBFEF1220C0EFB11CC77
:1049800042EA0C4201FB07F0904209D9B21801F14A
:10499000FF3C80F0EE80904240F2EB8002393244DE
:1049A000121AA4B2B2FBFEF00EFB102244EA02443B
:1049B00000FB07F7A74209D9341900F1FF3280F054
:1049C000DA80A74240F2D7803444023840EA0140FE
:1049D000E41B00211DB1DC400023C5E90043BDE814
:1049E000F0878B4206D90DB1C5E9000100210846C8
:1049F000BDE8F087B3FA83F1002948D1BB4202D366
:104A0000824200F20781841A67EB03020120944678
:104A1000002DE4D0C5E9004CE1E7002A00F09280C7
:104A2000B2FA82F3002B40F0A8808A1A4FEA164EA1
:104A30001FFA86FC0121200CB2FBFEF70EFB1722A9
:104A400040EA02420CFB07F0904207D9B21807F186
:104A5000FF3802D2904200F2E2804746121AA4B216
:104A6000B2FBFEF00EFB102244EA02440CFB00FCF9
:104A7000A44507D9341900F1FF3202D2A44500F24F
:104A8000CB801046A4EB0C0440EA0740A2E7C1F13A
:104A900020068B4022FA06FC4CEA030C07FA01F4CC
:104AA00020FA06F3F7404FEA1C49234300FA01F8C5
:104AB0001FFA8CFEB7FBF9F01C0C09FB107744EAD7
:104AC000074400FB0EF7A74202FA01F20AD91CEBD9
:104AD000040400F1FF3A80F09B80A74240F29880E6
:104AE00002386444E41B9FB2B4FBF9F309FB13449E
:104AF00047EA044403FB0EFEA64509D91CEB040457
:104B000003F1FF3780F08280A6457FD9023B6444E1
:104B100043EA0040A4EB0E04A0FB02E7BC4273464C
:104B2000B94663D360D05DB1B8EB030264EB09040E
:104B300004FA06F622FA01F31E43CC40C5E90064EC
:104B400000214CE76208480842EAC1710B0C43EAB5
:104B500000438AB242EA0342B3FBF6F1E407B446EB
:104B60003746B6461F23B0FBF6F0D21B41EA0041A0
:104B700061E7614614E7104628E7C3F1200120FAF7
:104B800001F29E4027FA01F19F403A434FEA164E48
:104B90001FFA86FCB1FBFEF70EFB1710110C41EA61
:104BA000004107FB0CF8884504FA03F43AD9711860
:104BB00007F1FF3001D288451FD8A1EB0801B1FBF6
:104BC000FEF808FB0CF70EFB181192B242EA014204
:104BD000BA422FD2B21808F1FF31C6D2BA42C4D2BB
:104BE000A8F102013244C0E7F0459CD2BEEB0203BB
:104BF00067EB0C070138B94695E7A6EB0808414476
:104C0000B81EB1FBFEF808FB0CF7DCE73B467FE77C
:104C1000504667E70846FBE63444023832E7023F75
:104C200032441BE7A1EB08013846B1FBFEF808FB54
:104C30000CF7C8E7414698E7F8B500BFF8BC08BCD8
:104C40009E467047F8B500BFF8BC08BC9E4670474A
:104C50006C4C000861050008000000000000000026
:104C60008000000000000000000000006465666134
:104C7000756C745461736B0049444C45000000002E
:104C80000100020000400000000402580010025819
:104C900000040258010002000400060008000A0097
:104CA0000C001000200040008000000108040204F5
:104CB00008010101010101030701000000000000DB
:0C4CC000010203040102030406070809B6
:084CCC0074FCFF7F01000000F1
:044CD4004D03000884
:044CD80025030008A8
:104CDC000048004001000000100000000090D003CC
:084CEC000090D003AAAAAAAAB5
:040000050800489116
:00000001FF
